{
  "contractName": "DStorage",
  "abi": [
    {
      "inputs": [],
      "stateMutability": "nonpayable",
      "type": "constructor"
    },
    {
      "anonymous": false,
      "inputs": [
        {
          "indexed": false,
          "internalType": "uint256",
          "name": "fileId",
          "type": "uint256"
        },
        {
          "indexed": false,
          "internalType": "string",
          "name": "fileHash",
          "type": "string"
        },
        {
          "indexed": false,
          "internalType": "uint256",
          "name": "fileSize",
          "type": "uint256"
        },
        {
          "indexed": false,
          "internalType": "string",
          "name": "fileType",
          "type": "string"
        },
        {
          "indexed": false,
          "internalType": "string",
          "name": "fileName",
          "type": "string"
        },
        {
          "indexed": false,
          "internalType": "string",
          "name": "fileDescription",
          "type": "string"
        },
        {
          "indexed": false,
          "internalType": "uint256",
          "name": "uploadTime",
          "type": "uint256"
        },
        {
          "indexed": false,
          "internalType": "address payable",
          "name": "uploader",
          "type": "address"
        }
      ],
      "name": "FileUploaded",
      "type": "event"
    },
    {
      "inputs": [],
      "name": "fileCount",
      "outputs": [
        {
          "internalType": "uint256",
          "name": "",
          "type": "uint256"
        }
      ],
      "stateMutability": "view",
      "type": "function"
    },
    {
      "inputs": [
        {
          "internalType": "uint256",
          "name": "",
          "type": "uint256"
        }
      ],
      "name": "files",
      "outputs": [
        {
          "internalType": "uint256",
          "name": "fileId",
          "type": "uint256"
        },
        {
          "internalType": "string",
          "name": "fileHash",
          "type": "string"
        },
        {
          "internalType": "uint256",
          "name": "fileSize",
          "type": "uint256"
        },
        {
          "internalType": "string",
          "name": "fileType",
          "type": "string"
        },
        {
          "internalType": "string",
          "name": "fileName",
          "type": "string"
        },
        {
          "internalType": "string",
          "name": "fileDescription",
          "type": "string"
        },
        {
          "internalType": "uint256",
          "name": "uploadTime",
          "type": "uint256"
        },
        {
          "internalType": "address payable",
          "name": "uploader",
          "type": "address"
        }
      ],
      "stateMutability": "view",
      "type": "function"
    },
    {
      "inputs": [],
      "name": "name",
      "outputs": [
        {
          "internalType": "string",
          "name": "",
          "type": "string"
        }
      ],
      "stateMutability": "view",
      "type": "function"
    },
    {
      "inputs": [],
      "name": "owner",
      "outputs": [
        {
          "internalType": "address payable",
          "name": "",
          "type": "address"
        }
      ],
      "stateMutability": "view",
      "type": "function"
    },
    {
      "inputs": [
        {
          "internalType": "string",
          "name": "_fileHash",
          "type": "string"
        },
        {
          "internalType": "uint256",
          "name": "_fileSize",
          "type": "uint256"
        },
        {
          "internalType": "string",
          "name": "_fileType",
          "type": "string"
        },
        {
          "internalType": "string",
          "name": "_fileName",
          "type": "string"
        },
        {
          "internalType": "string",
          "name": "_fileDescription",
          "type": "string"
        }
      ],
      "name": "uploadFile",
      "outputs": [],
      "stateMutability": "nonpayable",
      "type": "function"
    }
  ],
  "bytecode": "0x60806040526040518060400160405280600881526020017f4453746f726167650000000000000000000000000000000000000000000000008152506000908051906020019062000051929190620000ac565b5060006001553480156200006457600080fd5b5033600260006101000a81548173ffffffffffffffffffffffffffffffffffffffff021916908373ffffffffffffffffffffffffffffffffffffffff160217905550620001c1565b828054620000ba906200015c565b90600052602060002090601f016020900481019282620000de57600085556200012a565b82601f10620000f957805160ff19168380011785556200012a565b828001600101855582156200012a579182015b82811115620001295782518255916020019190600101906200010c565b5b5090506200013991906200013d565b5090565b5b80821115620001585760008160009055506001016200013e565b5090565b600060028204905060018216806200017557607f821691505b602082108114156200018c576200018b62000192565b5b50919050565b7f4e487b7100000000000000000000000000000000000000000000000000000000600052602260045260246000fd5b610c8180620001d16000396000f3fe608060405234801561001057600080fd5b50600436106100575760003560e01c806306fdde031461005c578063439535191461007a5780638da5cb5b14610098578063e82d9d33146100b6578063f4c714b4146100d2575b600080fd5b610064610109565b6040516100719190610949565b60405180910390f35b610082610197565b60405161008f919061096b565b60405180910390f35b6100a061019d565b6040516100ad919061092e565b60405180910390f35b6100d060048036038101906100cb91906107d7565b6101c3565b005b6100ec60048036038101906100e791906108ae565b61042f565b604051610100989796959493929190610986565b60405180910390f35b6000805461011690610b1b565b80601f016020809104026020016040519081016040528092919081815260200182805461014290610b1b565b801561018f5780601f106101645761010080835404028352916020019161018f565b820191906000526020600020905b81548152906001019060200180831161017257829003601f168201915b505050505081565b60015481565b600260009054906101000a900473ffffffffffffffffffffffffffffffffffffffff1681565b60008551116101d157600080fd5b60008351116101df57600080fd5b60008151116101ed57600080fd5b60008251116101fb57600080fd5b600073ffffffffffffffffffffffffffffffffffffffff163373ffffffffffffffffffffffffffffffffffffffff16141561023557600080fd5b6000841161024257600080fd5b6001600081548092919061025590610b4d565b91905055506040518061010001604052806001548152602001868152602001858152602001848152602001838152602001828152602001428152602001600260009054906101000a900473ffffffffffffffffffffffffffffffffffffffff1673ffffffffffffffffffffffffffffffffffffffff168152506003600060015481526020019081526020016000206000820151816000015560208201518160010190805190602001906103099291906106b7565b506040820151816002015560608201518160030190805190602001906103309291906106b7565b50608082015181600401908051906020019061034d9291906106b7565b5060a082015181600501908051906020019061036a9291906106b7565b5060c0820151816006015560e08201518160070160006101000a81548173ffffffffffffffffffffffffffffffffffffffff021916908373ffffffffffffffffffffffffffffffffffffffff1602179055509050507f6e95bbaa37a5fdec42a312e049dea2fe6160ebe659214d3409b4f91f164c2f52600154868686868642600260009054906101000a900473ffffffffffffffffffffffffffffffffffffffff16604051610420989796959493929190610986565b60405180910390a15050505050565b600360205280600052604060002060009150905080600001549080600101805461045890610b1b565b80601f016020809104026020016040519081016040528092919081815260200182805461048490610b1b565b80156104d15780601f106104a6576101008083540402835291602001916104d1565b820191906000526020600020905b8154815290600101906020018083116104b457829003601f168201915b5050505050908060020154908060030180546104ec90610b1b565b80601f016020809104026020016040519081016040528092919081815260200182805461051890610b1b565b80156105655780601f1061053a57610100808354040283529160200191610565565b820191906000526020600020905b81548152906001019060200180831161054857829003601f168201915b50505050509080600401805461057a90610b1b565b80601f01602080910402602001604051908101604052809291908181526020018280546105a690610b1b565b80156105f35780601f106105c8576101008083540402835291602001916105f3565b820191906000526020600020905b8154815290600101906020018083116105d657829003601f168201915b50505050509080600501805461060890610b1b565b80601f016020809104026020016040519081016040528092919081815260200182805461063490610b1b565b80156106815780601f1061065657610100808354040283529160200191610681565b820191906000526020600020905b81548152906001019060200180831161066457829003601f168201915b5050505050908060060154908060070160009054906101000a900473ffffffffffffffffffffffffffffffffffffffff16905088565b8280546106c390610b1b565b90600052602060002090601f0160209004810192826106e5576000855561072c565b82601f106106fe57805160ff191683800117855561072c565b8280016001018555821561072c579182015b8281111561072b578251825591602001919060010190610710565b5b509050610739919061073d565b5090565b5b8082111561075657600081600090555060010161073e565b5090565b600061076d61076884610a51565b610a20565b90508281526020810184848401111561078557600080fd5b610790848285610ad9565b509392505050565b600082601f8301126107a957600080fd5b81356107b984826020860161075a565b91505092915050565b6000813590506107d181610c34565b92915050565b600080600080600060a086880312156107ef57600080fd5b600086013567ffffffffffffffff81111561080957600080fd5b61081588828901610798565b9550506020610826888289016107c2565b945050604086013567ffffffffffffffff81111561084357600080fd5b61084f88828901610798565b935050606086013567ffffffffffffffff81111561086c57600080fd5b61087888828901610798565b925050608086013567ffffffffffffffff81111561089557600080fd5b6108a188828901610798565b9150509295509295909350565b6000602082840312156108c057600080fd5b60006108ce848285016107c2565b91505092915050565b6108e081610a9d565b82525050565b60006108f182610a81565b6108fb8185610a8c565b935061090b818560208601610ae8565b61091481610c23565b840191505092915050565b61092881610acf565b82525050565b600060208201905061094360008301846108d7565b92915050565b6000602082019050818103600083015261096381846108e6565b905092915050565b6000602082019050610980600083018461091f565b92915050565b60006101008201905061099c600083018b61091f565b81810360208301526109ae818a6108e6565b90506109bd604083018961091f565b81810360608301526109cf81886108e6565b905081810360808301526109e381876108e6565b905081810360a08301526109f781866108e6565b9050610a0660c083018561091f565b610a1360e08301846108d7565b9998505050505050505050565b6000604051905081810181811067ffffffffffffffff82111715610a4757610a46610bf4565b5b8060405250919050565b600067ffffffffffffffff821115610a6c57610a6b610bf4565b5b601f19601f8301169050602081019050919050565b600081519050919050565b600082825260208201905092915050565b6000610aa882610aaf565b9050919050565b600073ffffffffffffffffffffffffffffffffffffffff82169050919050565b6000819050919050565b82818337600083830152505050565b60005b83811015610b06578082015181840152602081019050610aeb565b83811115610b15576000848401525b50505050565b60006002820490506001821680610b3357607f821691505b60208210811415610b4757610b46610bc5565b5b50919050565b6000610b5882610acf565b91507fffffffffffffffffffffffffffffffffffffffffffffffffffffffffffffffff821415610b8b57610b8a610b96565b5b600182019050919050565b7f4e487b7100000000000000000000000000000000000000000000000000000000600052601160045260246000fd5b7f4e487b7100000000000000000000000000000000000000000000000000000000600052602260045260246000fd5b7f4e487b7100000000000000000000000000000000000000000000000000000000600052604160045260246000fd5b6000601f19601f8301169050919050565b610c3d81610acf565b8114610c4857600080fd5b5056fea264697066735822122013552fc37a2ea436010a0905b72a8e745686948d16b781a1bbe0c7c9e0e6f4fb64736f6c63430008000033",
  "immutableReferences": {},
  "source": "// SPDX-License-Identifier: MIT\n\npragma solidity ^0.8.0;\n\ncontract DStorage {\n  string public name = 'DStorage';\n  uint public fileCount = 0;\n  address payable public owner;\n  mapping(uint => File) public files;\n\n  struct File {\n    uint fileId;\n    string fileHash;\n    uint fileSize;\n    string fileType;\n    string fileName;\n    string fileDescription;\n    uint uploadTime;\n    address payable uploader;\n  }\n  constructor() public {\n    owner=payable(msg.sender);\n  }\n  event FileUploaded(\n    uint fileId,\n    string fileHash,\n    uint fileSize,\n    string fileType,\n    string fileName, \n    string fileDescription,\n    uint uploadTime,\n    address payable uploader\n  );\n\n  function uploadFile(string memory _fileHash, uint _fileSize, string memory _fileType, string memory _fileName, string memory _fileDescription) public{\n    // Make sure the file hash exists\n    require(bytes(_fileHash).length > 0);\n    // Make sure file type exists\n    require(bytes(_fileType).length > 0);\n    // Make sure file description exists\n    require(bytes(_fileDescription).length > 0);\n    // Make sure file fileName exists\n    require(bytes(_fileName).length > 0);\n    // Make sure uploader address exists\n    require(msg.sender!=address(0));\n    // Make sure file size is more than 0\n    require(_fileSize>0);\n    \n    //address payable owner = (payable(msg.sender));\n    // Increment file id\n    fileCount ++;\n\n    // Add File to the contract\n    files[fileCount] = File(fileCount, _fileHash, _fileSize, _fileType, _fileName, _fileDescription, block.timestamp, owner);\n    // Trigger an event\n    emit FileUploaded(fileCount, _fileHash, _fileSize, _fileType, _fileName, _fileDescription, block.timestamp, owner);\n  }\n}",
  "sourcePath": "E:\\Placements\\Projects\\DStorage\\src\\contracts\\DStorage.sol",
  "compiler": {
    "name": "solc",
    "version": "0.8.0+commit.c7dfd78e.Emscripten.clang"
  },
  "schemaVersion": "3.4.7",
  "updatedAt": "2022-06-16T06:33:58.851Z",
  "devdoc": {
    "kind": "dev",
    "methods": {},
    "version": 1
  },
  "userdoc": {
    "kind": "user",
    "methods": {},
    "version": 1
  }
}